:020000040800F2
:1000000000500020112B0008291D00082B1D00089E
:100010002D1D00082F1D0008311D000800000000E4
:10002000000000000000000000000000331D000878
:10003000351D000800000000371D0008391D0008AC
:10004000592B0008592B0008592B0008592B000880
:10005000592B0008592B0008592B0008592B000870
:10006000592B0008592B0008592B0008592B000860
:10007000592B0008592B0008592B0008592B000850
:10008000592B0008592B0008592B0008491D00085E
:100090003D1D0008592B0008592B0008592B00085A
:1000A000592B00084D1D0008592B0008592B00083A
:1000B000591D0008592B0008592B0008592B00081E
:1000C000592B0008592B0008592B0008592B000800
:1000D000592B0008592B0008592B0008592B0008F0
:1000E000592B0008592B0008592B0008000000006C
:1000F0000000000000000000000000000000000000
:0C01000000000000000000005FF808F1A3
:10010C0010B5054C237833B9044B13B10448AFF345
:10011C0000800123237010BD70000020000000003F
:10012C00783B000808B5034B1BB103490348AFF3F8
:10013C00008008BD0000000074000020783B00081F
:10014C0038B50E4B054618784FF47A73B3FBF0F3C1
:10015C000B4A1068B0FBF3F000F042FB044658B9B0
:10016C000F2D09D8024629464FF0FF3000F0F6FA61
:10017C00044B20461D6038BD012038BD0000002016
:10018C000800002004000020074A08B5136803206B
:10019C0043F01003136000F0CFFA0020FFF7D0FFFC
:1001AC0001F0E2FC002008BD00200240034A044B91
:1001BC0011681B780B441360704700BFA801002026
:1001CC0000000020014B1868704700BFA8010020F8
:1001DC0038B50446FFF7F6FF0546631C1EBF044BFB
:1001EC001B78E418FFF7EEFF401B8442FAD838BDA9
:1001FC000000002038B5044600286ED090F820305E
:10020C000BB901F0D3FC2268136823F002031360CE
:10021C00FFF7D8FF054623685A68910751D41A682E
:10022C0042F001021A60FFF7CDFF054623685A68B9
:10023C00D20754D5227E0020012A1A680CBF42F046
:10024C00800222F080021A60627E012A1A680CBFBA
:10025C0042F0400222F040021A60A27E012A1A6883
:10026C000CBF42F0200222F020021A60E27E012A2A
:10027C001A680CBF22F0100242F010021A60227FA2
:10028C00012A1A680CBF42F0080222F008021A6018
:10029C00627F012A1A680CBF42F0040222F00402A9
:1002AC001A60E168A2680A4321690A4361690A433A
:1002BC00616801390A43DA610123606284F82030F5
:1002CC0038BDFFF77FFF401B0A28A4D9636A43F4AB
:1002DC0000336362052384F82030012038BDFFF71A
:1002EC0071FF401B0A28A1D9F0E790F8203070B5B7
:1002FC00013B012B5FD8012403684869D3F8002225
:10030C0042F00102C3F8002200F01F0204FA02F2CC
:10031C00D443D3F81C522540C3F81C52CD6985BB7D
:10032C00D3F80C52CE682540C3F80C528D8803EBE1
:10033C00C00045EA0645C0F840528E680D8845EA73
:10034C000645C0F84452886968BBD3F804022040C3
:10035C00C3F80402086950BBD3F814022040C3F858
:10036C001402096A0020012902BFD3F81C120A43A7
:10037C00C3F81C22D3F8002222F00102C3F8002299
:10038C0070BD012DDFD1D3F80C520E681543C3F8A4
:10039C000C528D8803EBC00045EA0645C0F840526C
:1003AC008E688D89CBE7D3F804021043D0E7D3F8DD
:1003BC0014021043D3E7436A43F4802343620120C1
:1003CC0070BD38B590F820300446012B1FD10223A4
:1003DC00026880F82030136823F001031360FFF7E4
:1003EC00F1FE05462368586810F0010001D16062E7
:1003FC0038BDFFF7E7FE401B0A28F3D9636A43F4C4
:10040C0000336362052384F82030012038BD436A31
:10041C0043F400234362F8E7F0B590F82040013C28
:10042C00012C6BD8066841B9F468A40707D1436A5C
:10043C0043F4001343620120F0BD3469F5E70C016D
:10044C003519D5F8B07107F004079760002F4BD120
:10045C00D5F8B0717F0D1760D5F8B071264407F050
:10046C000207D760D5F8B47107F00F071761D5F8FC
:10047C00B471D5F8B451C7F307272D0C97615561AA
:10048C00D6F8B8211A7002682244D2F8B821120AA0
:10049C005A7002682244D2F8B821120C9A70026881
:1004AC002244D2F8B821120EDA7002682244D2F833
:1004BC00BC211A7102682244D2F8BC21120A5A716A
:1004CC0002682244D2F8BC21120C9A7102681444BE
:1004DC00D4F8BC21120EDA71036851B9DA6842F013
:1004EC002002DA600020F0BDD5F8B071FF0857602B
:1004FC00B2E71A6942F020021A61F3E7436A43F447
:10050C00802397E790F82030013B012B05D8026837
:10051C0000205369194351617047436A43F48023A7
:10052C0043620120704770477047704770477047AF
:10053C007047704770477047704770472DE9F84F08
:10054C00036805465E69D3F8049016F001049F68B1
:10055C00D3F80CB0D3F810A0D3F8188022D017F031
:10056C00010407D00122B9079A6040F1A38001F081
:10057C0057FA0024FB0509D54FF480722B68B80597
:10058C009A6040F1A5802846FFF7CDFFFB0309D503
:10059C004FF480322B68B8039A6040F1A78028464C
:1005AC00FFF7C2FF330707D51BF0100F1FBF102238
:1005BC002B6844F40074DA60770708D51BF0080F39
:1005CC0005D008222B682846DA60FFF7B1FFB00788
:1005DC0006D52B68DB68990702D0284601F022FA71
:1005EC00720607D51AF0100F1FBF10222B6844F4A7
:1005FC0080641A61B30608D51AF0080F05D00822DA
:10060C002B6828461A61FFF795FFF70606D52B686D
:10061C001B69980702D02846FFF78BFFB10308D55A
:10062C0019F0100F05D010222B6828465A60FFF7DE
:10063C0082FFF20308D519F0080F05D008222B68A9
:10064C0028465A60FFF778FF33042AD519F0040FB7
:10065C002A6824D0F70504D518F0010F18BF44F010
:10066C000104B00504D518F0020F18BF44F00204C1
:10067C00710504D518F0040F18BF44F004043305B9
:10068C000DD518F070030AD0302B4CD03CD8102B61
:10069C0043D0202B44D0936923F07003936104233F
:1006AC0053602CB16B6A28461C436C62FFF745FF04
:1006BC00BDE8F88F7A0705D417F0080405D1FFF7C9
:1006CC0034FF57E74FF4006454E74FF4805451E77C
:1006DC00790502D544F4005458E73A0502D544F4A0
:1006EC00804453E72846FFF721FF4FE7790302D5F3
:1006FC0044F4004456E73A0302D544F4803451E7FD
:10070C002846FFF714FF4DE7502B0FD0602B10D06D
:10071C00402BC0D144F04004BDE744F00804BAE7D4
:10072C0044F01004B7E744F02004B4E744F080042C
:10073C00B1E744F48074AEE7074A0002D36800F4D2
:10074C00E06023F4E0631B041B0C43F0BF6343F431
:10075C0000330343D360704700ED00E0174B30B516
:10076C00DC68C4F30224C4F10703251D042B28BF45
:10077C000423062D4FF0010598BF002405FA03F35E
:10078C0003F1FF3388BF033C1940A14005FA04F480
:10079C00013C2240002842EA01024FEA0212A9BFA2
:1007AC0000F16040064BD2B200F56140BBBF00F0D7
:1007BC000F00D2B280F800231A5430BD00ED00E0D7
:1007CC0014ED00E0002808DB0123420900F01F00B3
:1007DC0003FA00F0014B43F82200704700E100E0FF
:1007EC000138B0F1807F0AD2F021064B064A5860DE
:1007FC0082F823100020072298601A6070470120AD
:10080C00704700BF10E000E000ED00E02DE9F74F6D
:10081C0000242646664BDFF8A8E1DFF8A8C10A6879
:10082C0032FA06F502D103B0BDE8F08F4FF00108A3
:10083C0008FA06F802EA080290457FD14D68122D9D
:10084C0000F0AA8000F28380022D00F0A28077D8FD
:10085C00002D00F08980012D00F099804FF00F09D8
:10086C00FF2A93BF824606F18045083DD0F800B0C0
:10087C0092BFB500D0F804B0AD0009FA05F82BEA28
:10088C00080804FA05F588BF00F1040A48EA0505D2
:10089C00CAF80050D1F804A01AF0805F4ED0454D34
:1008AC00444FAD6926F0030845F00105BD61BD69F3
:1008BC0008F1804805F00105019508F5803806F02F
:1008CC00030B019D4FEA8B0BD8F8085009FA0BF972
:1008DC0025EA0909384DA84263D005F58065A84280
:1008EC0061D005F58065A8425FD005F58065A8420A
:1008FC000CBF0325042505FA0BF545EA0905C8F8D4
:10090C0008501D681AF4803F14BF154395431D60B1
:10091C005D681AF4003F14BF154395435D609D68F4
:10092C001AF4801F14BF154395439D60DD681AF4BB
:10093C00001F14BF2A4325EA0202DA6001366EE773
:10094C00032D22D0112D89D1CC68043486E71B4F9E
:10095C00BD4209D012D8DFF870904D4504D009F58E
:10096C0080394D457FF47AAF8C68C4B1012C0CBF33
:10097C00C0F81080C0F8148008246FE77545F3D0D8
:10098C006545F1D0DFF84490EBE7002466E7CC68CE
:10099C0064E7CC68083461E7CC680C345EE7042467
:1009AC005CE70025A7E70125A5E70225A3E700BF23
:1009BC00000401400010024000080140000021101A
:1009CC000000311000003210000011100000221045
:1009DC000AB1016170470904FBE7C3680B4214BFFD
:1009EC0041610161704700002DE9F341054608B9EA
:1009FC0001203CE00368DB0710D42B689F075DD413
:100A0C002B68190700F194802B685A0700F1BE80FF
:100A1C00E869002840F02C81002028E08F4C6368A6
:100A2C0003F00C03042B07D0636803F00C03082BB2
:100A3C0009D16368DE0306D523689C03DDD56B689A
:100A4C00002BDAD1D4E76B68B3F5803F12D1236861
:100A5C0043F480332360FFF7B5FB06462368980305
:100A6C00CBD4FFF7AFFB801B6428F7D9032002B06F
:100A7C00BDE8F0819BB9236823F48033236023689D
:100A8C0023F480232360FFF79DFB0646236899031C
:100A9C00B3D5FFF797FB801B6428F7D9E6E7B3F5CE
:100AAC00A02F236803D143F480232360CFE723F4E2
:100ABC0080332360236823F48023CBE7674C63687F
:100ACC0013F00C0F07D0636803F00C03082B10D144
:100ADC006368DA030DD423689B0702D52B69012BBD
:100AEC0086D123686A6923F0F80343EAC2032360C2
:100AFC0086E72A695A4B6AB101221A60FFF762FB3A
:100B0C00064623689F07ECD4FFF75CFB801B02288A
:100B1C00F7D9ABE71A60FFF755FB06462368980731
:100B2C007FF56EAFFFF74EFB801B0228F6D99DE7D1
:100B3C00AA694A4C4B4BDAB101221A60FFF742FB0F
:100B4C000646636A9B070DD54FF4FA52464B1B6859
:100B5C00B3FBF2F3019300BF019B5A1E0192002BD1
:100B6C00F9D151E7FFF72EFB801B0228E9D97DE76D
:100B7C001A60FFF727FB0646636A9F077FF544AFB1
:100B8C00FFF720FB801B0228F6D96FE7334CE36993
:100B9C00D80024D40127E36943F08053E361E3696F
:100BAC0003F080530093009B304E3368D90518D561
:100BBC00EB68012B26D1236A43F001032362FFF774
:100BCC0001FB41F288368046236A9B073FD5002FF4
:100BDC003FF41EAFE36923F08053E36118E700276D
:100BEC00E2E7336843F480733360FFF7EBFA804637
:100BFC003368DA05DCD4FFF7E5FAA0EB08006428CB
:100C0C00F6D933E7ABB9236A41F2883823F00103F4
:100C1C002362236A23F004032362FFF7D3FA064608
:100C2C00236A9807D3D5FFF7CDFA801B4045F7D937
:100C3C001CE7052B236A03D143F004032362BAE7B4
:100C4C0023F001032362236A23F00403B6E7FFF7C2
:100C5C00B9FAA0EB0800B042B6D907E70010024081
:100C6C000000424280044242080000200070004014
:100C7C002A4B5A681C4602F00C02082A3DD000236D
:100C8C00274E022833602BD1FFF79CFA07462368C6
:100C9C0099011FD42B6AB3F5803F05D16268A9680E
:100CAC0022F400320A436260696A62680B4322F4E0
:100CBC0074121343636001233360FFF783FA054614
:100CCC0023689A013FF5A8AEFFF77CFA401B022877
:100CDC00F6D9CBE6FFF776FAC01B0228D7D9C5E6C2
:100CEC00FFF770FA054623689B017FF595AEFFF779
:100CFC0069FA401B0228F6D9B8E601283FF4B7AED2
:100D0C0058682B6A00F480329A427FF471AE6B6A99
:100D1C0000F47010C01A18BF0120A8E600100240A1
:100D2C006000424230B5194B87B002AC03F110059C
:100D3C00224618685968083303C2AB421446F7D1EF
:100D4C0001238DF80430022311498DF805304B68CE
:100D5C0003F00C02082A17D1C3F3834206A80244FD
:100D6C00DB0312F8102C0CD54B680A48C3F3404334
:100D7C00504306AA134413F8143CB0FBF3F007B02D
:100D8C0030BD05485043FAE70248F8E7903B0008AD
:100D9C000010024000127A0000093D002DE9F041DC
:100DAC000D46044610B90120BDE8F081454A136890
:100DBC0003F007038B4229D321688E0731D4CA076D
:100DCC0044D4404A136803F007039D4267D322685A
:100DDC003D4D12F0040F6ED1130706D56B682269D6
:100DEC0023F4605343EAC2036B60FFF79BFF6B680D
:100DFC00364AC3F30313D35CD840354B1860354BDC
:100E0C001868FFF79DF90020BDE8F081136823F006
:100E1C0007030B431360136803F007039942C2D115
:100E2C00CAE7294B11F0040F1EBF5A6842F4E06266
:100E3C005A60080742BF5A6842F460525A605A68B6
:100E4C00A06822F0F00202435A60B8E762681E4EB6
:100E5C00012A33681BD113F4003FA4D0736841F20C
:100E6C00883823F0030313437360FFF7ABF907468D
:100E7C007368626803F00C03B3EB820FA1D0FFF729
:100E8C00A1F9C01B4045F3D90320BDE8F081022A2B
:100E9C0002D113F0007FE0E713F0020FDDE71368D7
:100EAC0023F007032B431360136803F007039D42E1
:100EBC007FF479AF8BE76B68E16823F4E0630B4355
:100ECC006B6089E70020024000100240D83B00080C
:100EDC000800002004000020044B054A5B68C3F3A3
:100EEC000223D35C034A1068D840704700100240BC
:100EFC00E83B000808000020044B054A5B68C3F37C
:100F0C00C223D35C034A1068D840704700100240DB
:100F1C00E83B00080800002003680020DA6842F073
:100F2C000102DA609A6802F00702062A1EBF1A68EC
:100F3C0042F001021A607047704770477047704763
:100F4C00036810B51A69044691070ED5DA68920742
:100F5C000BD56FF002021A6101229B6902779B0785
:100F6C0077D0FFF7EAFF0023237723681A6950072D
:100F7C0010D5DA6851070DD56FF004021A61022200
:100F8C009B69227713F4407F204668D0FFF7D5FF8A
:100F9C000023237723681A6912070FD5DA68100724
:100FAC000CD56FF008021A610422DB6922779907CD
:100FBC0020465AD0FFF7C1FF0023237723681A6914
:100FCC00D20610D5DA68D0060DD56FF010021A6172
:100FDC000822DB69227713F4407F20464BD0FFF7C1
:100FEC00ACFF0023237723681A69D10708D5DA6888
:100FFC00D20705D56FF0010220461A6100F062FDA0
:10100C0023681A69100608D5DA68110605D56FF041
:10101C00800220461A6100F044F923681A695206CE
:10102C0008D5DA68500605D56FF0400220461A61E3
:10103C00FFF785FF23681A69910622D5DA689206B4
:10104C001FD56FF020022046BDE810401A6100F059
:10105C0027B9FFF771FF2046FFF770FF83E7FFF713
:10106C006BFF2046FFF76AFF92E7FFF765FF20460C
:10107C00FFF764FFA0E7FFF75FFF2046FFF75EFF77
:10108C00AFE710BD1A4A036890420AD0B0F1804F06
:10109C0007D0A2F59432904203D002F580629042C0
:1010AC0015D14A6823F070031343114A90420AD0B9
:1010BC00B0F1804F07D0A2F59432904203D002F5E4
:1010CC008062904203D1CA6823F4407313434A6987
:1010DC0023F08003134303608B68C3620B68836245
:1010EC00034B984204BF0B690363012343617047B0
:1010FC00002C014010B50446A0B190F83D3003F02F
:10110C00FF021BB980F83C2000F098FD02232068F8
:10111C0084F83D30211DFFF7B5FF0123002084F832
:10112C003D3010BD012010BD10B584680A4324F475
:10113C007F4442EA03232343836010BD90F83C3084
:10114C0070B5012B04464FF0020019D0012384F82E
:10115C003D00206884F83C30836823F47F4323F0FF
:10116C00770383600B68402B65D015D8102B0CD0FF
:10117C0007D853B10123002084F83D3084F83C009B
:10118C0070BD202B01D0302BF4D1826843F00703C3
:10119C0022F0700213431AE0602B34D019D8502B74
:1011AC00E8D14A68CE68016A056A21F00A0125F087
:1011BC000105056283690A4323F0F00343EA061331
:1011CC0083610262836823F0700343F057038360EA
:1011DC00D0E7702B0CD0B3F5005FCBD1CB684A684D
:1011EC008968FFF7A1FF2268936843F4804308E005
:1011FC00CB684A688968FFF797FF2268936843F0C9
:10120C0077039360B6E74D68CE68016A21F0100150
:10121C0001628269036A22F4704223F0A00343EA5C
:10122C00051342EA063282610362836823F070037D
:10123C0043F06703CBE74A68CE68016A056A21F080
:10124C000A0125F00105056283690A4323F0F003C6
:10125C0043EA061383610262836823F0700343F050
:10126C004703B4E790F83C3030B5012B4FF0020344
:10127C0014D0046880F83D306268A3680D68496832
:10128C0022F0700223F080030B432A436260A360B8
:10129C00012380F83D30002380F83C30184630BDE7
:1012AC007047704738B505460368C1681A69192438
:1012BC0022F440520A431A6182680069D9680243D9
:1012CC00686921F4B05121F00C0102430A43DA6041
:1012DC005A69A96922F440720A435A610D4A934231
:1012EC0014D1FFF709FE60436C686422A400B0FBC4
:1012FC00F4F0B0FBF2F402FB14031B013233B3FB2A
:10130C00F2F3296803EB04138B6038BDFFF7E4FD9F
:10131C00E9E700BF00380140F8B504460E46174611
:10132C001D4621680B6836EA030301D10020F8BD85
:10133C006B1CF7D095B923680320DA6822F4D072BD
:10134C00DA605A6922F001025A61202384F839309C
:10135C0084F83A30002384F83830F8BDFEF732FFB9
:10136C00C01B8542DDD2E6E710B5044640B390F8C9
:10137C00393003F0FF021BB980F8382000F092FCE2
:10138C002423226884F83930D368204623F4005390
:10139C00D360FFF787FF236800201A6922F490427C
:1013AC001A615A6922F02A025A61DA6842F4005230
:1013BC00DA602023E06384F8393084F83A3010BDC9
:1013CC00012010BD2DE9F0411F4690F8393004463C
:1013DC00202B0D4690464ED1002949D0002A47D0EB
:1013EC0090F83830012B46D0012380F83830002398
:1013FC00C363212380F83930FEF7E4FE0646A4F8D7
:10140C002480A4F82680E38C9BB26BB93B46324611
:10141C0040212046FFF780FFA8B9202384F838002C
:10142C0084F83930BDE8F081E38C3246013B9BB245
:10143C00E384A3688021B3F5805F20463B460ED140
:10144C00FFF76AFF10B10320BDE8F0812B882268FA
:10145C00C3F308035360236943B90235D3E7FFF79D
:10146C005BFF0028EFD123682A785A600135CAE760
:10147C000120BDE8F0810220BDE8F081283908B5D3
:10148C00232922D8DFE801F0122321212121212157
:10149C002121212121212121212121212121212130
:1014AC00252A2C2E30323436383B3E4101224FF463
:1014BC0080711748FFF78CFA154801224FF4004150
:1014CC00FFF786FA0120FEF783FE012008BD1046C7
:1014DC00F9E701210E48FFF77BFAF6E70221F9E75D
:1014EC000421F7E70821F5E71021F3E72021F1E7C4
:1014FC004021EFE78021EDE74FF40071EAE74FF46C
:10150C000041E7E74FF40051E4E74FF48041E1E795
:10151C00000C014010B514464FF0FF3392B2024854
:10152C00FFF750FF204610BD040200200130044B91
:10153C0080B218801A8892B2002AFBD1704700BF83
:10154C0090000020F8B50138254C4F1E0E18B742FC
:10155C0000D1F8BD17F8015F204605F0010201210A
:10156C00FFF736FA05F0020220460221FFF730FAA7
:10157C0005F0040220460421FFF72AFA05F00802C0
:10158C0020460821FFF724FA05F01002204610210E
:10159C00FFF71EFA05F0200220462021FFF718FA6B
:1015AC0005F0400220464021FFF712FA05F08002B8
:1015BC0020468021FFF70CFA00224FF400712046E0
:1015CC00FFF706FA0120FFF7B1FF204601224FF486
:1015DC000071FFF7FDF90120FFF7A8FFB7E700BF87
:1015EC00000C0140143908B50C291AD8DFE801F0B9
:1015FC000B19190713171919191919190D0019466F
:10160C001046FFF79FFF012008BD4FF4005106481C
:10161C00FFF7DEF9F7E700224FF40041F7E701226C
:10162C00FAE7002008BD00BF000C014030B591B0B6
:10163C002822002106A801F0B5FA1422002101A8E5
:10164C0001F0B0FA1023022401250B934FF4001380
:10165C0006A80F9306940A950D94FFF7C5F90F236E
:10166C004FF4806201930023294601A8029403934E
:10167C0004920593FFF792FB11B030BD2DE9804821
:10168C008BB0FEF781FDFFF7D1FF1022002105A8DA
:10169C0001F088FABE4B4FF400519A69BD4842F0F4
:1016AC0010029A619A69002402F010020092009ACA
:1016BC009A694FF0010842F004029A619A694FF05E
:1016CC00020902F004020192019A9A694FF4807B9C
:1016DC0042F008029A619B69002203F0080302930E
:1016EC00029BFFF775F900224FF2FF31AA48FFF772
:1016FC006FF900224FF48071A848FFF769F94FF495
:10170C00005305A9A34805930794CDF81880CDF88C
:10171C002090FFF77BF80F2305A9A04805930694AA
:10172C000794FFF773F84FF2FF3305A99A48059316
:10173C000794CDF81880CDF82090FFF767F805A92D
:10174C0096480794CDF814B0CDF81880CDF82090B9
:10175C00FFF75CF80523924D924A284685E80C0069
:10176C004FF4A023AC602B61EC606C612C766C7632
:10177C00AC76EC762C776C77FEF73CFD102221468C
:10178C0005A801F00FFA4FF4B463874E87494FF464
:10179C00805A86E80A004CF250334FF4E137304659
:1017AC00F360B46034617461B46103940494FFF722
:1017BC00A1FC05A93046CDF814A0FFF7BFFC03A986
:1017CC00304603940494FFF74DFD7948794B8460BF
:1017DC0080E888000C23C460436104618461C461A7
:1017EC00FFF7C2FD1022214605A801F0DBF94FF0EE
:1017FC00280E4FF08043704F039487E808400A236B
:10180C003846FB600494BC603C61BC61FFF772FC21
:10181C0005A93846CDF814A0FFF790FC03A938466B
:10182C0003940494FFF71EFD0E23644928464B6273
:10183C004C618C610C604C608C60CC600C61C1F8AC
:10184C001C80C1F82080FEF750FD2846FEF7B9FD3C
:10185C0003212846FEF756FED022594B032183E87C
:10186C0014000422DC601A619C601C75554B3046D8
:10187C009970DA7083F8008083F80190FFF74CFBC5
:10188C003846FFF749FB424651464348FFF7A0F85C
:10189C00424659464048FFF79BF842464FF40041F8
:1018AC003D48FFF795F8484B484A4949494800F0EC
:1018BC001DFB484801F0DCF82146464801F0E0F8F1
:1018CC005F21444801F0E4F8142221460DEB02009C
:1018DC0001F068F93F4800F0D7FA3F4E3D4C3F4DC0
:1018EC003146204600F086FD0E222B460021204674
:1018FC0000F046FD204600F0D4FA02460028EFD155
:10190C00374D4FF480712548FFF762F82E46314C65
:10191C006420FEF75DFC14222B68002101330DEBD3
:10192C0002002B6001F03EF9204600F0ADFA2D4F7D
:10193C003268394605A801F0A1F92749204600F084
:10194C0059FD05AB0A220021204600F019FD26495D
:10195C00204600F04FFD2549204600F04BFD326833
:10196C00234B244905A801F089F905AB1822002165
:10197C00204600F005FD32681F4905A801F07EF9EC
:10198C0005AB28220021204600F0FAFC204635E069
:10199C000010024000100140000C01400008014002
:1019AC00B0020020006400401C030020002C014009
:1019BC000402002000480040D8020020B40100209E
:1019CC0048020020AC01002089140008F115000821
:1019DC00D45500089800002008440008A03B0008DB
:1019EC0094000020AD3B0008084D0008F03B0008B7
:1019FC00BD3B0008BF3B0008CB3B000800F051FA90
:101A0C00002895D100F180404FF4005100F588304A
:101A1C00FEF7E3FF014801F029F979E7D23B000812
:101A2C0070470000F8B51B4C1B4D23462A4600217D
:101A3C001A48FEF7F1FCA0786678277803042A6828
:101A4C0003EB0623E1783B44F02A03EB016302D15C
:101A5C00134A1360F8BDF12A07D1124A1360002310
:101A6C00114A1370114A1370F8BDF22A06D1104AAC
:101A7C00136000230F4A13700F4AF4E7D02A07D1E2
:101A8C0000220E4B1F705E709870D9700C4B1A7040
:101A9C00F8BD00BFA6020020E4010020B002002027
:101AAC00E00100204402002092000020930000205E
:101ABC00180300208C0000208D000020DC01002089
:101ACC008E0000200368214A30B5934232D1204D5C
:101ADC0020482B7820490133DBB22B7003781F4A46
:101AEC000133DBB203700B780133DBB20B7013786C
:101AFC000133DBB213701A4B1C780134E4B21C7046
:101B0C002C78092C84BF0A242C700478092C84BFEF
:101B1C000A2404700878092884BF0A2008701178F8
:101B2C00092984BF0A2111701A78092A0DD90A22B1
:101B3C001A7030BDB3F1804F07D10A4A13889BB29B
:101B4C001BB11388013B9BB2138030BD002C0140AC
:101B5C0092000020930000208C0000208D000020BB
:101B6C008E000020900000200E4B82B09A6942F04B
:101B7C0001029A619A6902F001020092009ADA69F4
:101B8C0042F08052DA61DB69074A03F0805301931B
:101B9C00019B536823F0E06343F00073536002B081
:101BAC00704700BF001002400000014010B5044611
:101BBC0086B01022002102A800F0F4FF22681D4B11
:101BCC009A4235D103F5D633DA6902A942F0007294
:101BDC00DA61DA69184802F000720092009A9A6988
:101BEC0042F004029A619B6903F004030193019B88
:101BFC004FF400630293FEF709FE4FF480530293F7
:101C0C0002230393032302A90B480593FEF7FEFD61
:101C1C00002213201146FEF7A1FD1320FEF7D2FD82
:101C2C00002214201146FEF799FD1420FEF7CAFD80
:101C3C0006B010BD006400400008014007B5036801
:101C4C00164A934214D1164B19209A6942F4006239
:101C5C009A6100229B69114603F400630093009B78
:101C6C00FEF77CFD1920FEF7ADFD03B05DF804FB1B
:101C7C00B3F1804FF9D103F50433DA691C2042F03B
:101C8C000102DA610022DB69114603F001030193C2
:101C9C00019BFEF763FD1C20E5E700BF002C014013
:101CAC000010024010B5044686B01022002102A894
:101CBC0000F078FF2268174B9A4228D103F5E433E1
:101CCC00DA6902A942F48022DA61DA69124802F474
:101CDC0080220092009A9A6942F008029A619B69EC
:101CEC0003F008030193019B4FF4806302930223DA
:101CFC00039303230593FEF789FD4FF400630293CE
:101D0C00002302A9044803930493FEF77FFD06B059
:101D1C0010BD00BF00480040000C01407047FEE7BA
:101D2C00FEE7FEE7FEE7704770477047FEF73EBAE6
:101D3C000148FEF703BC00BFB0020020FFF7F8BF5C
:101D4C000148FFF7FDB800BF1C0300200148FFF756
:101D5C00F7B800BFD802002070B50E4615460C46E9
:101D6C00A31B9D4201DC284670BDAFF3008004F834
:101D7C00010BF5E708B50A4B0246196809B9094980
:101D8C0019606946186802448A4206D900F0E0FEE0
:101D9C000C2303604FF0FF3008BD1A6008BD00BF74
:101DAC001C010020600300204FF0FF3070474FF4FF
:101DBC00005300204B607047012070470020704793
:101DCC000F4B1A6842F001021A6059680D4A0A401A
:101DDC005A601A6822F0847222F480321A601A68EF
:101DEC0022F480221A605A6822F4FE025A604FF4E0
:101DFC001F029A604FF00062034B9A60704700BF5D
:101E0C00001002400000FFF800ED00E02DE9F74360
:101E1C0005460026036890F8389090F8397093F8CE
:101E2C0011802B68B1B21B7CF4B2D8004143686BB3
:101E3C0089B201443A1901340091D2B200212846EA
:101E4C00E4B200F0FCFDA14504D90136BB19DBB2AC
:101E5C009845E6D803B0BDE8F083036800211A7CEE
:101E6C0090F83830406BDB005A4300F09BBE10B545
:101E7C000446036B80F839101B689847236B204687
:101E8C00BDE810405B68184710B590F883300446E5
:101E9C000BB1FFF7E2FF2046BDE810400021FFF731
:101EAC00E6BF38B50446FFF7B1FF94F8395094F803
:101EBC00381023680D445B7CEDB2AB4204D820464D
:101ECC0000F0EEFD002038BD94F8833013B12046AD
:101EDC00FFF7C3FF20462946FFF7C9FF012038BD95
:101EEC0001230370004870472001002030B585B0F5
:101EFC000D46009309491346094A044600F0F4FDC7
:101F0C000DF10F00FFF7ECFF9DF80F200146009537
:101F1C00044B204600F006FC05B030BD79290008C2
:101F2C006F280008552500084218435C507800EBD8
:101F3C00032080B270470020704738B50B780D46EF
:101F4C0003704B78044643708B788370CB78C370E6
:101F5C000B7903714B7943718B798371CB79C37195
:101F6C000B7A03724B7A43728B7A8372CB7AC3727D
:101F7C000B7B03734B7B43738B7B8373CB7BC37365
:101F8C000B7C112103742846FFF7CEFF13216082CE
:101F9C002846FFF7C9FF1521A0822846FFF7C4FF8A
:101FAC00E08238BD70B5847A066862183378D2B294
:101FBC00072A43FA04F506D8EBB282720120884056
:101FCC000138184070BD731C03607378C4F10804A9
:101FDC00E4B2A3402B43083ADBB2D2B2EDE738B5FA
:101FEC00002300F15405044680F85E30416590F8FA
:101FFC0068102846FFF7D6FF94F8691084F85C0047
:10200C002846FFF7CFFF94F8823084F85D0084F8FF
:10201C006030B3FA83F35B0984F8613038BD10B5D6
:10202C00FFF7C0FF01234C1EE4B2A340C01A40B21C
:10203C0010BD012B07D003D3022B06D0401A00E0B1
:10204C001044C0B270470844FBE7801AF9E7012B33
:10205C0007D003D3022B06D0104400E00844C0B2D2
:10206C007047801AFBE7401AF9E72DE9F04F044658
:10207C000E4687B090F85A8090F85B70059294F8F1
:10208C005C503346A5EB0805EDB2AE4228BF2B469B
:10209C0094F86290029394F859304FFA88FA4FFAF8
:1020AC0087FB04935A464B46514694F85800FFF769
:1020BC00CEFF4B4603905A4651460498FFF7B9FFA2
:1020CC00059B02469BB194F8603084F88230CDF8C1
:1020DC000090029B0399204600F0A7F9AE420DD365
:1020EC00761B0137F6B2FFB24FF00008C7E794F841
:1020FC005F30002BF2D194F86130E6E7464484F867
:10210C005A6084F85BB007B0BDE8F08F2DE9F04F52
:10211C00044685B000F15409FFF761FF94F95D3076
:10212C0094F86A1048460293FFF779FF94F86B1005
:10213C0083464846FFF773FF94F86C108046484678
:10214C00FFF76DFF94F95C600390002E57DD9DF84E
:10215C00085094F862A0A844C8F100084FFA88F817
:10216C0053464246594694F85800FFF770FF5346C1
:10217C0084F858000746424694F859005946FFF730
:10218C0058FF84F85900BAF1030F5AD8DFE80AF067
:10219C00023B4450BB190544DBB2E9B20091024644
:1021AC003946204600F0B8F948B3002384F85A3079
:1021BC0084F85B3094F866104846FFF7F3FE94F809
:1021CC00671006464846FFF7EDFE054600223146ED
:1021DC002046FFF74AFF294620460122FFF745FF1C
:1021EC0001214846FFF7DEFE0028EFD194F95B3061
:1021FC00029A9342DEDB94F8603084F882300398C4
:10220C0005B0BDE8F08FC5F101057A190644013718
:10221C00FBB2F1B2D7B2C1E7C6F10106C5F10105B7
:10222C00411CBA1905440137FBB2C9B2E8B2F1E757
:10223C00C6F10106411CEB190644DBB2C9B2F0B27F
:10224C00ACE701463B46A9E7C36CFF2970B503F127
:10225C0017030D4612D8602909D9B0F87820134419
:10226C00587848B31A78AA4206D1981C70BD4029F8
:10227C00F6D9B0F87620F2E70344F1E7B0F87A40EB
:10228C001C44264600213046FFF74EFE0221044432
:10229C003046FFF749FE854206F10406F2D8237852
:1022AC00607850EA032306D09D4201D1E01C70BD3A
:1022BC00A3781C44F3E7184670BDF8B51F4690F898
:1022CC00623004460E461546032B07D8DFE803F0B0
:1022DC0002151A1E036D98470544EDB284F8586038
:1022EC0084F8595039462046FFF7AEFF20B101461D
:1022FC002046FFF70BFFC0B2F8BD036D9847361AA6
:10230C00F6B2EBE7036D98472D1AE6E7036D984795
:10231C000644F5E72DE9F0471E4607460C461546E0
:10232C004FF0000A00F026FA4FF6FF784FF6FE79D0
:10233C00013E7B6816F8011F384698474045034616
:10234C001BD04845F5D02A4621463846FFF7B5FF45
:10235C0097F86230032B05D8DFE803F002080B0D69
:10236C000444E4B250445FFA80FAE2E70544EDB26B
:10237C00F8E7241AF5E72D1AF9E75046BDE8F0877F
:10238C0010B4024C446010BCFFF7C4BF71270008A6
:10239C00C36C10B533B390F9714090F9721090F88A
:1023AC007D3080F87E4080F87F10DBB1012B0CD1A2
:1023BC0090F973309C42B8BF80F87E3090F974303D
:1023CC0099420FDD80F87F3010BD90F9702090F9A4
:1023DC006E3013449C42B8BF80F87E309142C8BF27
:1023EC0080F87F2010BD0000014B0365704700BFD3
:1023FC00431F0008C26C10B58A42044608D0E16441
:10240C006430FFF79AFD2046BDE81040FFF7C0BFCF
:10241C0010BD70B490F83C409DF80C60121BC46A5F
:10242C000396A44670BCD2B2604770B490F87C405E
:10243C009DF80C50002C3AD0002B38D0012B04D92D
:10244C00022D2BD10131C91AC9B215F0010530D1B9
:10245C0090F8434094422AD890F84440944226D9AC
:10246C000B44DBB28B4290F8416090F842401CD296
:10247C008C4219D9631EDBB29E4218D2B14238BFCE
:10248C0031469C4294BFC1EB0404C1EB0304E3B29C
:10249C00046B0395A468A44670BC6047032D02BF6F
:1024AC000132D21AD2B2D0E731468C42E4D870BC99
:1024BC00704790F841408C42F9D890F842408C42D9
:1024CC00F5D91344DBB2934290F8436090F8444042
:1024DC0010D294420DD9631EDBB29E42E7D2B242B7
:1024EC0038BF32469C4294BFC2EB0404C2EB0304D7
:1024FC00CDE732469442DAD9EFE78A4206D28342DC
:10250C0008D89A4294BF0020012070478342F8D823
:10251C00002070470120704770B504460D461E46DA
:10252C0090F844109DF8103090F84300FFF7E5FF49
:10253C0048B133462A4694F8421094F84100BDE85D
:10254C007040FFF7DABF70BDF0B5012490F88250EF
:10255C0002F00706B440012D9DF81470E4B217D8B0
:10256C00254617D002F0F80E026892F810C0426BA4
:10257C000CFB0E1111447FB9013BDBB201330B4450
:10258C000A782A43624001F8012B9942F8D1F0BD38
:10259C000025E7E70024E5E70A7801362A43624084
:1025AC00013B16F007060A70DBB20CD190F83A200A
:1025BC00114490F88220012A0AD80BD00124254618
:1025CC00002BE9D1F0BD6D006400EDB2E4B2F7E789
:1025DC000124F5E71546F3E770B590F8384001682B
:1025EC00E30080F83B300A7C90F839501F2A28BF52
:1025FC001F22EB00DBB2D20080F83C3080F83A208E
:10260C004A7C66199642C4BF541BE4B280F83D3034
:10261C0003EBC40380F83E30F02380F83F308B8A04
:10262C00F02B98BF80F83F30CB8A80F8403070BDDB
:10263C00FFF7D2BF30B490F840409DF80850A21A72
:10264C0090F83F40D2B2611AC9B23DB9013AC91AE9
:10265C00D2B2C9B2029530BCFFF7DBBE012D01BF6F
:10266C0001F1FF31D21AC9B2D2B2F3E737B590F803
:10267C00485090F8463090F8472090F84510009557
:10268C000446FFF749FF18B984F87C0003B030BD4D
:10269C00012394F8412084F87C3094F845309A4218
:1026AC0038BF84F8413094F8422094F846309A426E
:1026BC0088BF84F8423094F8432094F847309A420B
:1026CC0038BF84F8433094F8442094F848309A4248
:1026DC0088BF84F84430D9E7002390F83F2080F875
:1026EC00433080F8413080F8422090F8403090F828
:1026FC003E20934224BF9A1A80F8432090F83D2044
:10270C009B1A80F84430FFF7B1BF002280F84520B7
:10271C0080F84720FF22036B80F8462080F8482081
:10272C005B68184770B50025C36201230446049EFC
:10273C0080F8382080F8395080F85F5080F881504C
:10274C0080F8823080F8833041633368C564066357
:10275C0098472046FFF7D9FF2046FFF745FE84F83F
:10276C00625070BD19B10A2901D088B270474FF67A
:10277C00FF707047002380F82630704710B404694E
:10278C000A46A4460023202110BC604710B40469FB
:10279C001346A4460A4610BC1721604707B502AA87
:1027AC0002F8011D0121FFF7F1FF03B05DF804FBF6
:1027BC0010B4C4680A46A4460023152110BC604717
:1027CC0010B4C4680A46A4460023162110BC604706
:1027DC0010B4C4681346A4460A4610BC17216047BF
:1027EC00002310B4C4681A46A446182110BC6047D4
:1027FC00002310B4C4681A46A446192110BC6047C3
:10280C0073B505460C462178172919D003D815291C
:10281C000DD202B070BD19291CD9FE29F9D16278EC
:10282C00292128468DF8072000F042F906E062784D
:10283C00EE688DF8072000232846B0470234E2E703
:10284C0063780DF10702012128468DF80730FFF758
:10285C00BFFFF3E70023EE681A4628460134B04761
:10286C00D1E72DE9F0411546A1F1140204460E46BC
:10287C009846052A1AD8DFE802F01003030D101051
:10288C000021FFF77BFF29462046FFF787FF012039
:10289C00BDE8F0810121FFF771FF276943462A4605
:1028AC0031462046BC46BDE8F04160470020BDE8FB
:1028BC00F08100000E292DE9F04106461746984696
:1028CC0041D00F2908D00B2948D1D2BB2549FFF79D
:1028DC0097FF0120BDE8F081FFF782FF98F80530E3
:1028EC0096F82240304604EBC30404F0FF0421099F
:1028FC0041F01001FFF75CFF04F00F013046FFF7C9
:10290C0057FF98F80610304641F0B001FFF750FF22
:10291C0098F80450D8F80080ED00EDB22B19842BF8
:10292C00C4BFC4F18404E5B2424629463046013F97
:10293C00FFF74EFF17F0FF07F6D13046FFF758FFB1
:10294C00C7E70949C3E7FFF74BFF81213046FFF783
:10295C002FFFB9083046FFF733FFEEE70020BDE844
:10296C00F08100BF0F5600081656000870B50446DB
:10297C000D461646FFF79EFF48B90A2D09D00D2DBE
:10298C000FD0092D04D10F49204600F023F8012067
:10299C0070BD204600F023F80B492046FFF730FFAE
:1029AC00F5E746B909492046FFF72AFF23689B7CC7
:1029BC0084F82230EBE706492046FFF721FF236815
:1029CC00DB7CF5E720560008E055000801560008AE
:1029DC000856000801608B7C80F82230704738B5AF
:1029EC00002345691A4628210446A8470023E568B8
:1029FC001A4614212046A847204601224B2100F0FC
:102A0C0057F8236820461A79292100F051F82046FE
:102A1C0000224B2100F04CF8236820461A7929211A
:102A2C0000F046F8204601224B2100F041F82368C3
:102A3C0020465A792921BDE8384000F039B813B541
:102A4C008DF80620049A8DF8043002AB8DF8051031
:102A5C0043F8082D846801220F21A04702B010BD55
:102A6C00002310B484681A46A446092110BC6047A0
:102A7C00002310B484681A46A4460A2110BC60478F
:102A8C0010B484680A46A44600230B2110BC60478E
:102A9C0010B484680A46A44600230E2110BC60477B
:102AAC00002310B484681A46A446102110BC604759
:102ABC0010B444690023A44610BC60470020704742
:102ACC000023036080F8233080F826308361FF23D5
:102ADC00044A80F824308260C2600261426180F84E
:102AEC0028307047C92A0008F8B5069D17461E46BF
:102AFC00FFF7E6FFC760066145618160BDE8F840FD
:102B0C00FFF7AEBF002103E00B4B5B584350043181
:102B1C000A480B4B42189A42F6D30A4A02E00023A9
:102B2C0042F8043B084B9A42F9D3FFF749F900F0FD
:102B3C0015F8FEF7A3FD7047D856000800000020DA
:102B4C00700000207000002060030020FEE70000F1
:102B5C00014B1868704700BF0C00002070B50025B1
:102B6C000C4E0D4CA41BA410A54209D100F0FEFF85
:102B7C0000250A4E0A4CA41BA410A54205D170BD19
:102B8C0056F8253098470135EEE756F8253098472A
:102B9C000135F2E7D0560008D0560008D056000890
:102BAC00D456000803460244934200D1704703F800
:102BBC00011BF9E770B50E46054618B183690BB9D0
:102BCC0000F032FAAB69AC6813B9284600F02CFA65
:102BDC00234B9C4217D16C68A3891B071DD5236915
:102BEC00DBB1013EA36816F8011F013BA360E9B9F4
:102BFC00002B2EDA22460A21284600F063F8013019
:102C0C0011D00A2070BD174B9C4201D1AC68E3E790
:102C1C00154B9C4208BFEC68DEE72146284600F0C5
:102C2C00A3F80028DDD04FF0FF3070BD002B04DA84
:102C3C00A269934206DB0A2904D023685A1C22603D
:102C4C001970CFE72246284600F03CF80130C9D174
:102C5C00E9E70A2023685A1C2260187070BD00BF77
:102C6C005C5600087C5600083C560008024B014696
:102C7C001868FFF79FBF00BF0C0000200EB44FF484
:102C8C00027100B59CB0ADF814106FF000410491C6
:102C9C0007914FF6FF711DAB02900690084853F850
:102CAC00042BADF81610006802A9019300F0B0FBDC
:102CBC000022029B1A701CB05DF804EB03B0704745
:102CCC000C000020F8B50E461446054618B1836971
:102CDC000BB900F0A9F9214B9C422AD16C68A3696D
:102CEC00A360A3891A072ED5236963B323692068CF
:102CFC00F6B2C01A63693746984204DB214628466F
:102D0C0000F028F928BBA3680130013BA3602368BD
:102D1C005A1C22601E706369984204D0A389DB0799
:102D2C0019D50A2E17D12146284600F013F990B177
:102D3C000FE00B4B9C4201D1AC68D0E7094B9C4295
:102D4C0008BFEC68CBE72146284600F00DF80028B8
:102D5C00CCD04FF0FF373846F8BD00BF5C560008AA
:102D6C007C5600083C560008324B70B51D68064670
:102D7C000C4625B1AB6913B9284600F055F92E4B1A
:102D8C009C420FD16C68B4F90C309AB215072CD454
:102D9C00D00611D40922326043F04003A3814FF0D6
:102DAC00FF3070BD254B9C4201D1AC68EBE7244B46
:102DBC009C4208BFEC68E6E7510712D5616B41B144
:102DCC0004F14403994202D0304600F01BFA002370
:102DDC006363A38923F02403A38100236360236925
:102DEC002360A38943F00803A38123694BB9A3890A
:102DFC0003F42073B3F5007F03D02146304600F076
:102E0C00C1F9A28912F001030CD00023A3606369FD
:102E1C005B42A361236953B9B4F90C3013F0800001
:102E2C00BAD170BD920758BF6369A360F2E7002066
:102E3C00F7E700BF0C0000205C5600087C56000829
:102E4C003C5600088A892DE9F041054610070C46CE
:102E5C005AD44B68002B05DC0B6C002B02DC0020D9
:102E6C00BDE8F081E66A002EF9D0002312F48052FE
:102E7C002F682B6033D0606DA3895A0705D5636822
:102E8C00C01A636B0BB1236CC01A00230246E66AAE
:102E9C00216A2846B047431CA38906D129681D29FD
:102EAC004BD82B4ACA40D60747D50022626022690C
:102EBC00D904226004D5421C01D12B6803B960658A
:102ECC00616B2F600029CAD004F14403994202D0EF
:102EDC00284600F097F900206063BDE8F081216A74
:102EEC0001232846B047411CC6D12B68002BC3D008
:102EFC001D2B01D0162B01D12F60B0E7A38943F015
:102F0C004003A381BDE8F0810F69002FA7D0930780
:102F1C0018BF00230E6808BF4B69A6EB07080F60AB
:102F2C008B60B8F1000F9ADD43463A46216A284679
:102F3C00A66AB047002807DCA38943F04003A381AD
:102F4C004FF0FF30BDE8F0810744A8EB0008E8E73C
:102F5C000100402038B50B6905460C46DBB118B1B1
:102F6C0083690BB900F060F80C4B9C4209D16C687A
:102F7C00B4F90C307BB121462846BDE83840FFF748
:102F8C0061BF074B9C4201D1AC68F1E7054B9C42F9
:102F9C0008BFEC68ECE7002038BD00BF5C560008A9
:102FAC007C5600083C560008014900F0A9B800BF47
:102FBC00612F0008002310B5044603604360836052
:102FCC0081814366C2810361436183611946082292
:102FDC005C30FFF7E7FD054B24626362044BA36290
:102FEC00044BE362044B236310BD00BF553900084A
:102FFC0077390008AF390008D339000870B5682557
:10300C004A1E55430E4605F1740100F047F904467B
:10301C0040B1002180E842000C30A06005F168024C
:10302C00FFF7C0FD204670BD836910B5044633BB65
:10303C008364C3640365124B124A1B688262984214
:10304C0004BF0123836100F01FF86060204600F08C
:10305C001BF8A060204600F017F80022E060042165
:10306C006068FFF7A7FF01220921A068FFF7A2FF04
:10307C0002221221E068FFF79DFF0123A36110BD1E
:10308C0038560008B52F0008F8B51C4B07461E68CB
:10309C00B36913B93046FFF7C7FF4836B468736895
:1030AC00013B03D5336833B13668F7E7B4F90C50FC
:1030BC006DB16834F4E704213846FFF79FFF3060A8
:1030CC000028F1D10C2304463B602046F8BD4FF696
:1030DC00FF73E38101236566A3812560A5606560AC
:1030EC0025616561A5610822294604F15C00FFF7A2
:1030FC0059FD6563A563A564E564E6E738560008E9
:10310C002DE9F84380468946002600F1480414B99D
:10311C003046BDE8F883A5686768013F01D524688F
:10312C00F5E7AB89012B07D9B5F90E30013303D084
:10313C0029464046C84706436835EEE770B50E464B
:10314C00B1F90E1090B0002914461D4607DA002381
:10315C002B60B3891A0610D44FF480630EE001AAD9
:10316C0000F058FC0028F2DB029A02F47042A2F53F
:10317C0000535A425A412A60EEE740230020236054
:10318C0010B070BD8B8973B59D0706460C4607D5EC
:10319C0004F14703236023610123636102B070BD16
:1031AC0001AB6A46FFF7CAFF00990546304600F0AE
:1031BC0075F848B9B4F90C309A05EFD423F0030331
:1031CC0043F00203A381E3E70D4BB362A3892060B4
:1031DC0043F08003A381009B20616361019B5BB181
:1031EC00B4F90E10304600F027FC28B1A38923F067
:1031FC00030343F00103A381A3891D43A581CDE7FC
:10320C00B52F000838B50546002943D051F8043CC9
:10321C000C1F002BB8BFE41800F063FC1E4A1368A7
:10322C00104633B9636014602846BDE8384000F09E
:10323C0059BCA3420BD921686218934201BF1A688A
:10324C005B685218226063600460EDE713465A68AD
:10325C000AB1A242FAD919685818A0420BD12068B9
:10326C000144581882421960DED11068526801443A
:10327C0019605A60D8E702D90C232B60D4E7206878
:10328C0021188A4201BF11685268091821606260D6
:10329C005C60C9E738BD00BFA001002070B5CD1C33
:1032AC0025F0030508350C2D38BF0C25002D0646DE
:1032BC0001DBA94203D90C233360002070BD00F060
:1032CC0010FC234A1468214691B9224C23681BB97F
:1032DC00304600F029FB20602946304600F024FBE4
:1032EC00431C26D10C233046336000F0FBFBE4E793
:1032FC000B685B1B1AD40B2B0FD90B60CC18CD5061
:10330C00304600F0EFFB04F10B00231D20F007000A
:10331C00C31A1BD05A42E25070BD8C420BBF63687B
:10332C004B681360636018BF0C46E9E70C464968AC
:10333C00CAE7C41C24F00304A04205D0211A30466D
:10334C0000F0F2FA0130CDD02560D9E770BD00BF96
:10335C00A0010020A40100202DE9F0478E688246D0
:10336C009E420C469146984635D88A8912F4906F45
:10337C0031D00223256809696F1A656905EB45058B
:10338C0095FBF3F508F101033B449D4238BF1D4604
:10339C00530531D52946FFF781FF064650B90C235A
:1033AC00CAF80030A3894FF0FF3043F04003A381EB
:1033BC00BDE8F0873A46216900F06EFBA38923F43F
:1033CC00906343F08003A38126613E442660464609
:1033DC006561ED1BA560464528BF46464946324609
:1033EC00206800F064FBA36800209B1BA36023688B
:1033FC001E442660BDE8F0872A4600F074FB0646A2
:10340C000028E1D121695046FFF7FCFEC7E7000018
:10341C002DE9F04F9DB003938B8980461C060D4619
:10342C0016460FD50B696BB94021FFF737FF2860A3
:10343C00286128B90C23C8F800304FF0FF30C4E0E5
:10344C0040236B610023099320238DF8293030230E
:10345C004FF0010B8DF82A3037463C4614F8013BEF
:10346C00002B3CD1B7EB060A0BD05346324629460B
:10347C004046FFF771FF013000F0A280099B5344D6
:10348C0009933B78002B00F09B8000234FF0FF3218
:10349C0004930793059206938DF853301A930522E3
:1034AC002178504800F0EAFA671C049BD8B9D90679
:1034BC0044BF20228DF853201A0744BF2B228DF8CD
:1034CC00532022782A2A16D000210A20079A274650
:1034DC003B780134303B092B50D9C9B111E0252B75
:1034EC00C0D02746B9E73F4A3C46801A0BFA00F099
:1034FC0018430490D3E7039A111D12680391002A14
:10350C0001DB079204E0524243F00203079204935A
:10351C003B782E2B0DD17B78791C2A2B32D1039B37
:10352C0002371A1D1B680392002BB8BF4FF0FF33F4
:10353C0005932D4C03223978204600F09FFA38B1C0
:10354C004023001B03FA00F0049B01370343049350
:10355C003978062225487E1C8DF8281000F08EFA4A
:10356C00002835D0224BFBB9039B073323F007030C
:10357C0008330393099B4B4409936DE700FB02321C
:10358C000121A4E700230A24184605930F463A7834
:10359C000131303A092A03D9002BCAD00590C8E76B
:1035AC0004FB00200123F1E703AB00932A46114BE7
:1035BC0004A94046AFF30080B0F1FF3F8146D9D15A
:1035CC00AB895B063FF539AF09981DB0BDE8F08FAC
:1035DC0003AB00932A46074B04A9404600F084F83D
:1035EC00EAE700BF9C560008A2560008A656000841
:1035FC0000000000653300082DE9F04791461F4696
:10360C008A680B6906469342B8BF1346C9F8003066
:10361C0091F843200C46DDF8208012B10133C9F833
:10362C0000302368990642BFD9F800300233C9F83C
:10363C000030256815F0060507D104F1190AE36876
:10364C00D9F800209B1A9D422ADB94F8433022685B
:10365C00003318BF012392062FD404F143023946DC
:10366C003046C047013022D02368E56803F00603DA
:10367C00042B18BF0025D9F800204FF0000908BF13
:10368C00AD1AA368226908BF25EAE5759342C4BF49
:10369C009B1AED181A344D451BD10020BDE8F0875C
:1036AC000123524639463046C047013003D14FF012
:1036BC00FF30BDE8F0870135C1E73020E11881F813
:1036CC0043005A1C94F845102244023382F84310EC
:1036DC00C3E70123224639463046C0470130E6D0C5
:1036EC0009F10109D7E700002DE9F04317460A7EDE
:1036FC0085B06E2A984606460C460C9B01F1430E8B
:10370C0000F0BC801AD8632A2ED00AD8002A00F008
:10371C00C880582A00F08A8004F1420584F84220BF
:10372C002AE0642A01D0692AF6D121681A6811F0BE
:10373C00800F23D0111D1960136827E0732A00F045
:10374C00B48008D86F2A2AD0702AE5D10A6842F0D2
:10375C0020020A6003E0752A21D0782ADCD1782275
:10376C006F4984F8452064E01A6801F14205111D87
:10377C001960136884F842300123A3E011F0400F64
:10378C0002F104011960D7D0B2F90030002B03DA32
:10379C002D225B4284F8432062490A2217E02068FC
:1037AC00196810F0800F03D0081D18600B6806E034
:1037BC0010F0400F01F104001860F7D00B886F2A4D
:1037CC0014BF0A2208225749002084F84300656878
:1037DC00002DA560C0F29C80206820F004002060C1
:1037EC00002B3FD1002D40F095807546082A0BD157
:1037FC002368DA0708D5236962689A42DEBF302352
:10380C0005F8013C05F1FF35AEEB05032361CDF85E
:10381C0000803B4603AA21463046FFF7EDFE0130FF
:10382C0055D14FF0FF3005B0BDE8F08381F845204D
:10383C003C492268186812F0800F00F104051D60E5
:10384C0001D0036802E05506FBD50388D00744BFBE
:10385C0042F0200222601BB9226822F02002226072
:10386C001022B1E77546B3FBF2F002FB1033CB5CD0
:10387C0005F8013D03460028F5D1B7E708681A683A
:10388C0010F0800F496904D0101D1860136819607E
:10389C0007E010F0400F02F1040018601368F6D036
:1038AC001980002375462361B1E71A68111D196050
:1038BC00156800216268284600F0E0F808B1401B4A
:1038CC00606063682361002384F843309FE72369B9
:1038DC002A4639463046C0470130A2D023689B07A0
:1038EC0007D5002504F11909E368039A9B1A9D4238
:1038FC0005DBE068039B9842B8BF184693E70123A9
:10390C004A4639463046C04701308AD00135EBE78C
:10391C00002BA7D10B7804F1420584F8423065E7FF
:10392C00BE560008AD56000838B50023054C0546B8
:10393C0008462360FEF71EFA431C02D1236803B12C
:10394C002B6038BD5C03002010B50C46B1F90E108D
:10395C0000F0F0F80028ABBF636DA3891B1823F4AB
:10396C008053ACBF6365A38110BD2DE9F0411F46A8
:10397C008B890546DB050C46164605D5022300222D
:10398C00B1F90E1000F068F8A389324623F4805385
:10399C00A381B4F90E103B462846BDE8F04100F077
:1039AC0017B810B50C46B1F90E1000F055F8431CC1
:1039BC00A38915BF606523F4805343F48053A3811E
:1039CC0018BFA38110BDB1F90E1000F013B80000A0
:1039DC0038B50546084611460022054C22601A46A9
:1039EC00FDF798FD431C02D1236803B12B6038BD51
:1039FC005C03002038B50023054C054608462360BF
:103A0C00FEF7D2F9431C02D1236803B12B6038BDF9
:103A1C005C03002038B50023064C054608461146C9
:103A2C002360FEF7C4F9431C02D1236803B12B6059
:103A3C0038BD00BF5C03002038B50023054C05469B
:103A4C0008462360FEF7B8F9431C02D1236803B182
:103A5C002B6038BD5C03002038B50546084611467E
:103A6C000022054C22601A46FEF7A8F9431C02D12D
:103A7C00236803B12B6038BD5C03002010B5C9B2BC
:103A8C0002449042034601D1002010BD1C78013045
:103A9C008C42F6D1184610BD10B5431E0A44914213
:103AAC0000D110BD11F8014B03F8014FF7E7884224
:103ABC0010B501EB020303D8421E99420CD110BD84
:103ACC009842F9D28118D21AD34200D110BD13F802
:103ADC00014D01F8014DF7E711F8014B02F8014FC8
:103AEC00EBE770477047F8B5074614460E4621B908
:103AFC001146BDE8F840FFF7D1BB22B9FFF782FBB6
:103B0C0025462846F8BD00F027F884420FD92146F7
:103B1C003846FFF7C3FB05460028F2D03146224653
:103B2C00FFF7BAFF31463846FFF76CFBE9E735463D
:103B3C00E7E7000038B50546084611460022054C5B
:103B4C0022601A46FEF708F9431C02D1236803B120
:103B5C002B6038BD5C03002051F8040C0028A0F148
:103B6C000400BCBF0B58C01870470000F8B500BF6C
:103B7C00F8BC08BC9E467047F8B500BFF8BC08BC42
:043B8C009E4670479A
:103B900002030405060708090A0B0C0D0E0F10108E
:103BA00048656C6C6F20776F726C6420007465736D
:103BB00074436F756E7465723A256C7500B000744D
:103BC000656D703A256C7525734300686D3A256CF8
:103BD00075004F4B32210D00000000000000000076
:103BE00001020304060708090000000001020304A3
:103BF000BF0003020304030404070B00FE06FE07D4
:103C0000FE013C028D07FB200500A603210739A316
:103C100063500222079BB223B1042310C59EA794D0
:103C20002483524A924129250900240BC49E2B1A51
:103C30004253A22500250E3EA2634BA229D3922116
:103C40004A3205260B36A24B4BB528D1A2252705B3
:103C500019B363280B4B9B2B8992A8166501290C7D
:103C6000CB9A238BB2A8122511002A0A25AE2B521B
:103C7000A42C49002B0A2DA62B8C06298C002C077E
:103C80009A9A2751002D068CAE63082E0511A34386
:103C90002F0C4E9E37AC866998862900300ABCA24C
:103CA00047893C250A003109BCA22BD9BA0C013244
:103CB0000ABCA24789B2A86D08330BBCA24789B2DF
:103CC00044941205340C3DA22F9392523268610243
:103CD000350BBCA263D0B2311B1200360BBCA267FD
:103CE000C8B225921205370BBCA26390B2288BB2E2
:103CF00008380CBCA24789A44489A44401390BBCF0
:103D0000A24789A464CB86043A0629A343113B0841
:103D1000B29AA79628003C07ABA62BA9153D089C94
:103D2000AA630887003E082BA723AB94003F09B481
:103D3000A24789DA8108400D469E6BCAA421E9D3C7
:103D4000122F00410C36A2674CA2D210552401421A
:103D50000C35A263882A53251A1400430AB4A247DB
:103D600089B452A200440D35A263882A511225D18C
:103D7000A000450B35A26350A2640AA361460C352E
:103D8000A26350A2644AA26C02470BB4A24789B452
:103D9000644A1400480C36A24352A26888BA48020A
:103DA0004909B5A26390C2A6414A0CB5A267C8C230
:103DB000244AA248024B0D36A24391924C4CB228A1
:103DC00099024C09B5A2630B9B86014D0BB5A2234A
:103DD0005B964449B4454E0E36A24359A248891217
:103DE000A92225004F09B4A247899C1205500CB5A1
:103DF000A263882A51326513005109BC9E47899CF1
:103E00001269520C36A263C8A2A62D4AA600530915
:103E1000B4A267084D4302540A35A2E3520A6B0B61
:103E200000550A36A24352A27E9300560E36A24394
:103E300019B228C9922C093300570D36A24319B282
:103E4000A44F49964400580BB5A243516A61962489
:103E500006590BB5A243D9925A982D005A09B4A21B
:103E600063903A0D025B084A9B63E98B005C0BCDC3
:103E70009E234CC3344CC3345D084A9B43E9CB00BA
:103E80005E089DB22B4B6A015F060E9AE300600646
:103E900092BA230A610A2DA2478D96285202620C1B
:103EA0003DA2430CA74A94448302630AACA247890B
:103EB000B4285100640DBDA24B8C962889922852DB
:103EC00002650BACA2478986244A1400660BBCA28B
:103ED0004B8986242B0D01670CBD9AC79444491465
:103EE0008DC904680A3EA2434DB7A897456909BD2C
:103EF000A22B47C4A6416A09CB9A2B9B3A2D006B93
:103F00000B3DA243AC28252D490C6C08BDA247EC03
:103F100069106D0A2EA2438992FE8B006E0A2EA2B2
:103F200023D1A25E16016F09ACA247894C890270A9
:103F30000E3D9A23912A51122553362400710CBD4F
:103F40009AC7944449148DD900720AADA22359C26C
:103F5000DA90007309ACA26708C52101740CBDA2F8
:103F600027CC86282C450A0075092EA24391FAA673
:103F700004760C2EA24352B228C9923002770C2E3E
:103F8000A22349969E922C8900780A2DA243516A59
:103F900095C400790E3D9A4351A2244AA2488B341D
:103FA000007A09ACA263889A06017B0A4B9B2B8995
:103FB0002A59540B7C06499BE3017D0B4B9B238BB9
:103FC0006A495489007E0894AE27511200A005006A
:103FD000A603A107399B231904A20BC49E2B8B8631
:103FE0002C9CB204A30C3EA26B0A072D0DB36108F2
:103FF000A40B2DA6234BA6245AB200A50D3DA22347
:104000004B2A83140D52B600A607499B631A02A7D8
:104010000CC49E670895484AC42101A8060BB72323
:1040200009A90E3EA24B8B92C412294A299300AAD9
:1040300008ACA6635CC221AB091EA6471912491140
:10404000AC071DAA63100BAD068CAE6308AE0F3E25
:10405000A24B8B9264502C8912651200AF068CB66D
:104060006308B0089CB247891205B10B35A22B8CAE
:104070000629070601B20723AF67A90CB30823AFCF
:1040800063C91600B40612B74701B50B3E9A4391B7
:10409000FAB4544300B60F469E67587A52B2244B86
:1040A000B2245204B70511AB43B8079B9A275B00B3
:1040B000B90723AF43AA0CBA09ACA6478912750801
:1040C000BB0A9EA6439194215100BC0F3EA243CD52
:1040D00092281992285192210CBD0E3EA243CD92F6
:1040E000281926A5944403BE0F3EA263CCA22451F6
:1040F0004A89920C6100BF0A3C9A2B07B2A845017D
:10410000C00E4EA22BCEA131894A43549104C10E58
:104110004EA22FCCB131894A43549104C20F4EA212
:104120002B4C72684CA2D210552401C30F4EA22B07
:1041300089921C1A93A834441549C40D46A2A70EAF
:104140008D49541AA28A24C50F4EA22F4CC26C4C22
:10415000A2D210552401C60A36A26790B4E4D43422
:10416000C70CC49A4789B452A2251200C80D4DA2AB
:104170002B8D07254AA6301A06C90D4DA2AF0E0C8D
:104180004A944C61340CCA0E4DA22B4BE2418992E9
:10419000298C8601CB0C45A2A73C28513285D13011
:1041A000CC0C4DA227CD81410A9B0601CD0B4DA21F
:1041B000AF0E0C52D83408CE0C4DA22B4BE2410A64
:1041C0009B0601CF0A45A2A73C4861D320D00D35FC
:1041D000A26388A2212925D1A000D1124EA22B8949
:1041E000921C51962852A244AA480900D20BCCA294
:1041F000278C95C8295100D30BCCA2AB0E28915324
:10420000A200D40BCCA2AB922A9153A200D50CCC25
:10421000A227516225724A1400D60BC4A2238995A5
:10422000C8295100D70A2DA6234B6A955A00D80DEC
:1042300036A24B29552425AA241200D90C4EA22BB4
:10424000CE114989FA4D02DA0C4EA22FCC214BD463
:104250006F1200DB0D4EA22F4C724052A27E9300D3
:10426000DC0C46A2A78E484AD46F1200DD0C4DA28A
:10427000AF0E285B520BB305DE0A35A2439C2A53CE
:104280003601DF0C36A24B8B2A529654A604E00C62
:1042900045A227CD11355AA24809E10C45A2AF8E9F
:1042A000A8D112454A00E20D45A22B4B72408D96D3
:1042B000285202E30C45A2A73BA2464B142901E475
:1042C0000C3DA2A70EA8D112454A00E50E4DA22B27
:1042D0004BB21C51A3258A9400E60B2EA24799925B
:1042E0006498A245E70BBC9A4789B428D11209E823
:1042F0000AC4A2278C95681807E90AC4A2AB0E2845
:10430000D1300EEA0BC4A2274A62251AC601EB0A75
:10431000BCA2238995681807EC0A45A227CD11B1E4
:104320006910ED0A45A2AF8E884D8300EE0B45A2C1
:104330002B4B72406C1A04EF0A3DA2A70E884D83E6
:1043400000F00CC4A2434994D210991205F10D4615
:10435000A22B89921C49B4A89745F20BC4A2278CC2
:1043600095C8942800F30BC4A22F8A95C8942800FE
:10437000F40CC4A2274A622532250A00F50CC4A217
:104380002751622532250A00F60BBCA2238995C865
:10439000942800F70A2DA62B07061D8800F80C3676
:1043A000A2379A1249892A8904F90B46A22BCE1109
:1043B00053DF9400FA0B46A22FCC2145EA9B12FB57
:1043C0000B46A22B4C72C4D43725FC0A3EA2A78E02
:1043D00098FAA604FD0F559AAF0E284A9444491442
:1043E000699106FE0E4D9A430CA74A9444C9944D18
:1043F00000FF0F4D9AA7AC2851122551A4451A0071
:1044000000000004FFFF0000BF00030304040404D5
:1044100005140CF8FE08FE08FE0185030F08E320D2
:1044200005009814210982891407494C00220B4584
:10443000C81612CA28128A00231187887891582832
:10444000648A042321535A2406240DB57958C1D80F
:1044500085B644B98500251889883AD1485A28126A
:104460000A86E29050301409C52211610400260F1B
:104470008888594351AC46324D28A2D101270842C1
:10448000C913950800280CA36954114944A7902822
:1044900000290DA36914215148A2252209012A08E7
:1044A00044C93592D3002B0B778878E1B45B380D83
:1044B000002C084269141409002D0612B913022EAB
:1044C00006228914042F0FA668B7C168301A8C061B
:1044D000A3C12800300D878858B3141937492C36EA
:1044E000023108838A1813FD00320C8689189598CA
:1044F000504D169B19330C86891855A18428155EDA
:1045000000340F878898C259442451921CA5120088
:10451000350B858A18C6206D26B300360F8788585C
:1045200015A1D422A34962220A00370D86891846B4
:1045300099302813CA6600380F86893814514542CD
:104540008A2891241400390F8788382459444693C7
:1045500058859212003A0762891444023B09826925
:1045600014448A04003C0A7689B84191B26A003D3D
:104570000846991876A8013E0B76891851B19262C7
:1045800014003F0D85891694904CA426878800401E
:1045900015898979C4A0244291844292884822993D
:1045A000C84134004110888878E2614418918944F8
:1045B000A698242A420C8689171511E9A28974014C
:1045C000430B87895815A154B3B800440C88891946
:1045D000269944C89BC404450B86891787A0B0223E
:1045E0005434460B858917371945A60D00470D87AA
:1045F000885815A1548D2611890A480B87891932CC
:10460000B6038D9B0049078289140F024A09A468EA
:1046100056FA5305004B11878918B288282489D18E
:104620004A12918A68004C08868917427D344D0CE5
:1046300088891AB392E942D957014E0E87891942E7
:104640005A49225211D588024F0D898859351529AA
:1046500057894C5602500C8689178710CB2122545B
:10466000045116AA68594599482A914AA412A948A2
:1046700026AC43EA000900520F878918251591449A
:10468000A92411A98806530C86883714E18C481494
:104690005E00540A888818879858DF00550A878971
:1046A00019327E9354005612888818D2882C240B15
:1046B0004D6492A02438960157178A881A22D96827
:1046C00012924C4292494832094D6822A14804583E
:1046D0001087881823892836940E49218968005943
:1046E0000E88881833892C260952C5DA005A0C86A0
:1046F0008917B6996C3493CD0C5B08A3691415FD2A
:10470000325C0EA66817E168381A8E86A3E1005D58
:1047100008A3691413FD525E0B769978416DA12CA4
:10472000C1005F0615781605600613FA1703610CC1
:10473000668837B388A4A2934400620B8689184226
:104740006145C4E902630965893636B51901640A11
:104750008689982A274E9202650A6688371411E9DD
:10476000302D660B858835141149A61300670B861A
:104770006938274E92A28402680B868918426145E7
:10478000C493006908828914A243016A09A4685489
:1047900062919E0C6B0F86891742A588242409918B
:1047A000242A036C078289140F026D0F6A891B8704
:1047B0009288242289482292026E0966891815116E
:1047C0004F026F0C67883795498D56995400700BCE
:1047D0008669181511A78B5008710A866938274E0B
:1047E00092A2027209648915929326007309658961
:1047F000173712CD02740B848835220945A469004D
:104800007509668918229E2405760D6788173289F6
:1048100028248A0D9700771169881A22D148129AA4
:10482000244D9226232500780C66881613959870DF
:10483000145119791087681732892824910D8752ED
:10484000A110007A09668817B6D136037B0BA369DD
:1048500054112D119144037C07A1691387017D0C2C
:10486000A3691421895288A205007E0A36A938223C
:1048700089920400A005009814A109826914A24835
:10488000E410A20D85897821D34C3689D02200A36B
:104890000B858A5813991249162BA411878818D1B1
:1048A000482C548A8562A158A8120DA50F87881834
:1048B000238928449C956A521900A607A1691324EC
:1048C00002A70CA66938479AAD64235E00A80714B6
:1048D000FA17A100A91188895934914462094A82C2
:1048E000938A484602AA0845C916B54301AB0E662D
:1048F0008857299288524424898502AC0746991822
:10490000D60CAD0612B91302AE0C66A938944B64EE
:1049100062925000AF0614FA1704B00723E913138C
:1049200001B10B778878E1D82D1C871DB20854B1EE
:1049300015B41003B30853B115A31901B40613FB42
:104940001703B50B866918229E0E432100B613A5E6
:10495000691887084B28128A8422A14828128A04E1
:10496000B70612BB1802B806226B1704B90752B07B
:1049700015921CBA0A45C8361309453201BB1066A8
:104980008817A158442409492411492804BC1388D4
:104990008B1A42494C144B8A4892442911513500D4
:1049A000BD12898B1A42514C9618AA248682129104
:1049B0001A01BE12888B1A335148220B4622265107
:1049C0004A44540DBF0C85695672884CA4268A103F
:1049D000C01198885863F130228CC84422534C127D
:1049E00015C11198887853F130228CC84422534C59
:1049F0001215C21198885854F130228CC8442253A1
:104A00004C1215C31198885854F130228CC8442296
:104A1000534C1215C411988858A9E2614418918921
:104A200044A698242AC51198887862F130228CC84F
:104A30004422534C1215C6108A889BC671441CA18F
:104A400085A4C5985A01C70DA7695815A154B3B8D4
:104A5000161601C80C968957B1435058112A1AC925
:104A60000C968977A1435058112A1ACA0C96895777
:104A7000A2435058112A1ACB0D968937A1C8212874
:104A8000AC08150DCC08938A1413FD01CD08938949
:104A90001415FD02CE09948A1414917E01CF0A9454
:104AA0008A14A18848BF00D0118988393625E14988
:104AB0002294082532910900D10F9789591421AD0C
:104AC0002411A9886A4401D20E998899E19A8A949E
:104AD000AB44262B01D30E9988B9D19A8A94AB4462
:104AE000262B01D40E998899D29A8A94AB44262B0E
:104AF00001D50E998879C49A8A94AB44262B01D6A5
:104B00000F998879A1604D45CA5522939500D70E1B
:104B1000768918C1482836138E528201D8118988A7
:104B2000591799446692504436894C7202D90B97B2
:104B300089592319BF492A00DA0B9789791319BFBC
:104B4000492A00DB0B9789591419BF492A00DC0B4D
:104B500097895929327E935400DD0F988878A3995C
:104B600044169304A9626D00DE0D868917C28A88F7
:104B7000E510110A01DF118789382451482292C4B7
:104B80002413518D3201E00C768857C1594452D11B
:104B90004922E10C768877A2594452D14922E20C8D
:104BA0007688576B114945278900E30C768837A42E
:104BB000594452D14922E40D768837A1D02C22A93C
:104BC000E82411E50C768857B2594452D14922E6BF
:104BD0000E69883A4B91894C74B0CC2605E70B8559
:104BE000693636B519292801E80B768857418A8835
:104BF000749816E90B768877318A88749816EA0BD0
:104C0000768857328A88749816EB0C768837A1100C
:104C100045443A4C0BEC07738A14137DED087389F5
:104C20001415BD00EE09748A1414915E00EF0A7425
:104C30008A14A188482F00F00FA78897D15849E916
:104C400020A2314D2A00F10A768938948A882701FA
:104C5000F20D778877C1CAA446AB4C2A00F30D77D2
:104C60008877C1CAA446AB4C2A00F40D778877B286
:104C7000CAA446AB4C2A00F50D778857A4CAA446AF
:104C8000AB4C2A00F60D7788574995498D569954B3
:104C900000F70B76895871143B420C00F80D6788B9
:104CA000370749E510A91C2400F90A768938231131
:104CB0004F9202FA0A76895813114F9202FB0A7634
:104CC000893814114F9202FC0B768938A188882705
:104CD0004901FD109768572399441492C88643A947
:104CE0005008FE0DA66918426145C4E9221402FF6E
:104CF000119768572932892824910D8752A11000F5
:104D000000000004FFFF0000BF00030204040404CD
:104D100005110CFAFE08FE08FE016502E508AF2049
:104D20000500981321078189139700220733D914AE
:104D30008925231287887749A644C3948449344C33
:104D4000899664002410A57957D9A04449266A4958
:104D5000940C5A04250F86893799D2322561122D79
:104D60002D5A022610858938531225919424CA1091
:104D7000454A00270631D913032809A2693489D28C
:104D80005312290BA269144994745112002A0A443F
:104D9000C935D190480A002B0B778877716D18B20E
:104DA000B8062C0842691343A2002D0612B914025A
:104DB0002E06118913012F0CA5689559580BB3B015
:104DC0001602300E8688374354091D93281A1200A4
:104DD0003107828A174A3F320B8589374B16669214
:104DE000DB20330D858917431A266B180E0A003411
:104DF0000E868877A29644152919C63401350C848D
:104E0000891783968D59362400360D85893743924C
:104E1000854392D99205370C8589178398655A4D39
:104E20000B01380D8589374BA6258BB269C902392C
:104E30000E8589374BB469C91066C990003A07617D
:104E4000891361003B07816913E1003C0A7688B74A
:104E5000994956E5003D0736A817E7613E0B76886D
:104E600017B12A4B9A96023F0B8488156316D572A8
:104E700020024012888A7943A429C9A2949492629C
:104E8000CA912102410F878878E9988449561AA46B
:104E90002C4903420F85891643926983122599365E
:104EA0002800430C8689584392A9CD593404440DF7
:104EB000878918831426A9C7649000450B85891635
:104EC000C77048C2E220460B84891683561BB41A69
:104ED00000470D8689584392A94531C9A221480B44
:104EE000868918A1711844C70049078189130701F1
:104EF0004A08A36853FD69014B0E868917D954C926
:104F00006E89142999004C09858916611F07014D86
:104F100011878919DA900DD952512A4A458AD4004D
:104F20004E0F868918E136444A2425D2908D014FD0
:104F30000C8789595B25754DB26C02500C8589161A
:104F400043929986252C025113A869596316A549E5
:104F50009AA4491A65DA90033A20521086891743B9
:104F600094255912455B544B3201530C8588364BBE
:104F700098AAA9362800540A878817872CEE1B00A8
:104F8000550A868918A11F93210156108788176931
:104F90009229599455C2245C3300571289881959B3
:104FA000A6553A254D4953D2A6885904580E8788EC
:104FB000179A925552714CB28A26590D8788179AC2
:104FC0009255C2248DDB005A0B868817C7506C0D92
:104FD00087015B08A269144BBF085C0BA5681569C3
:104FE000580DD3B01A5D08A268144ABF0C5E0A7649
:104FF0009877A12DEA250C5F0715781683006006C7
:1050000012FA1702610D6589364B142D5112454A6B
:1050100000620C85891761382499D3B000630A6453
:105020008936839465DA00640B8589979561D26C23
:10503000C910650B6588364B360CA13804660B9495
:1050400088544A164D592700670D856937C3A4D97E
:1050500092211C1400680A85891761C5A4B90569E5
:1050600007818913C9306A09A3685369D4D3026BD5
:105070000C8589166169894E8912096C078189132B
:1050800007016D0E69891AC962B2655AA6655A018F
:105090006E096589178949730B6F0D66883743223E
:1050A0008DE2A40C0900700C8569174392390D4BF1
:1050B0001802710B856937C3A4D992212C72096338
:1050C0008915C9123501730A64893643264E430295
:1050D000740A748834D190648D02750965891799B2
:1050E000274509760C6688166112350D99280177D7
:1050F0000E688818915392289152728A00780D6632
:10510000881792A264A216259200790D866816610E
:1051100012B56DA2186A007A0B6589168396495AF2
:1051200036087B0AA3685449D422B5057C07A169D7
:10513000130F017D0BA36914595452A296087E09DE
:1051400036A83792625200A005009813A107816922
:1051500013C930A210858957D9A0444994444936CF
:10516000441100A30B848A574A164D596908A411AB
:105170008788176932488A944559A448839206A5BE
:105180000F868917991245A3364443966600A608F0
:10519000A16913433404A70FA5693783982ED11052
:1051A00025AB362800A80713FA174900A9138889E8
:1051B0005943962991B2844A28294AA60D1100AA7A
:1051C0000A44C8154332448300AB0D65885649CB69
:1051D000902851922501AC0736A817D702AD0612C8
:1051E000B91402AE0A54B937CAB00C8A02AF06131A
:1051F000FA1703B00723EA138B00B10D7788777194
:10520000360C599C63C310B20953B21453322403B1
:10521000B30953B214CB900D01B40612FB1702B5BB
:105220000B85691799A741114300B608A469175F58
:10523000263FB70611BB1701B807326B17D100B96B
:105240000752B2144A07BA0A44C8354A24250A004C
:10525000BB0D6588164996448932249D00BC12888E
:105260008B199A9495C24489162D2945C39800BD7F
:1052700011878B199A9245B56448A6921229D200DB
:10528000BE12888B19932992D22519122D2945C354
:105290009800BF0A846855399045B570C01097884A
:1052A00058723A2661929506294BD200C110978810
:1052B000786A3A2661929506294BD200C2109788E7
:1052C0005843988E499864A541CA9234C310978870
:1052D0005843988E499864A541CA9234C41097885F
:1052E00058499A8E499864A541CA9234C511A78835
:1052F0007862148A631226596990B2240DC6138A03
:10530000889AC3A803490E244316A5839A85E120F1
:10531000C70EA669584392A9CD593464A104C80D9B
:10532000958956D130864312160701C90D958936E5
:10533000D930864312160701CA0D958936D23086B8
:105340004312160701CB0D95893695610C87242CE5
:105350000E02CC07928A134A7FCD089289134BBF65
:1053600000CE0A948A134392F51300CF09938A134F
:1053700049A95F00D012888838831646E9A02569BC
:10538000922661344800D11096893843126E43A4A6
:105390004452220DD918D20D978979E956495D9367
:1053A0002C9B00D30D978979E956495D932C9B007E
:1053B000D40C978979B74AEA9A64D904D50E9789AB
:1053C0005943B65552D724CB2600D60E9789594952
:1053D000B85552D724CB2600D70E768817611245D0
:1053E00043A60D51250CD81287895983922559223D
:1053F0002926254BB2649000D90B96895852E8C7EC
:10540000644800DA0B96895852E8C7644800DB0C00
:105410009689384312FA31191200DC0B968938A5A7
:10542000D08FC99000DD0E97887792A66495304999
:10543000E33600DE0C858916E190644EC31202DF6C
:105440000F95891753254A4A4954C92C0A00E00D83
:10545000758956D912454B94449112E10D758956C0
:10546000D912454B94449112E20D758916DB124511
:105470004B94449112E30E75891643B444D112251E
:1054800051A404E40D758936A5258A96288922251C
:10549000E50E858936526989A2254AA24809E60E99
:1054A00067893996A8320C511649CB00E70C8469FC
:1054B00036839465DA142900E80C758856D9920D64
:1054C00043280E01E90C758856D9920D43280E0128
:1054D000EA0C758856CB920D43280E01EB0C7588AB
:1054E00036A5251B86501C02EC07728A134A1FED55
:1054F000087289134B2F00EE09748A134392F50446
:10550000EF09738A1349A91700F00D8589175B12FB
:105510002D996D511600F10B75891743929834B788
:1055200000F20D768877D99048A338294302F30D0D
:10553000768857E19048A338294302F40D768857BE
:10554000DA9048A338294302F50E7688374334248D
:10555000D2284ECA9000F60D768837B52191467153
:10556000528604F70B678877396D18722C03F80D93
:10557000668837C3104D89121D8604F90A7589376C
:1055800052E6495102FA0A7589574AE6495102FB27
:105590000A75893783E6495102FC097589376D9E82
:1055A0001425FD0E9668565298446D9B28861A0065
:1055B000FE0EA5691761382499D3B0842100FF0E2F
:1055C000966836A53089DA36510C350000000004A3
:1055D000FFFF00003D260008E526000841260008E0
:1055E0001815E215AE154015A115C015A615A21582
:1055F0002F15F8160015271581161815AE15A519C3
:10560000FF1815A115C019FF1815A015C819FF1806
:1056100015A415AF19FF1815AE15A519FF00000048
:10562000000196320101327800093D000004285043
:10563000100804008000400010000020000000005E
:10564000000000000000000000000000000000005A
:10565000000000000000000000000000000000004A
:10566000000000000000000000000000000000003A
:10567000000000000000000000000000000000002A
:10568000000000000000000000000000000000001A
:10569000000000000000000000000000232D302B5F
:1056A0002000686C4C006566674546470030313223
:1056B000333435363738394142434445460030317A
:1056C00032333435363738396162636465660000D9
:0456D000310100089C
:0456D4000D010008BC
:1056D80001000000100000000024F4001000002069
:1056E800000000005C5600087C5600083C56000884
:1056F80000000000000000000000000000000000A2
:105708000000000000000000000000000000000091
:105718000000000000000000000000000000000081
:105728000000000000000000000000000000000071
:105738000000000000000000000000000000000061
:0400000508002B11B3
:00000001FF
